:100000000C9462000C947F000C947F000C947F0091
:100010000C947F000C947F000C947F000C947F0064
:100020000C947F000C947F000C947F000C947F0054
:100030000C947F000C947F000C947F000C947F0044
:100040000C94A1010C947F000C947F000C947F0011
:100050000C947F000C947F000C947F000C947F0024
:100060000C947F000C947F00000000080002010047
:100070000003040700000000000000000102040863
:100080001020408001020408102001020408102002
:10009000040404040404040402020202020203032E
:1000A00003030303000000002300260029000000D2
:1000B0000000250028002B0000000000240027007D
:1000C0002A00A70011241FBECFEFD4E0DEBFCDBFB2
:1000D00021E0A0E0B1E001C01D92A33BB207E1F72F
:1000E00010E0C4ECD0E004C02297FE010E94F502AB
:1000F000C23CD107C9F70E9492010C94F9020C94FA
:10010000000060E085E00C94940286E00E94CA0240
:10011000892B71F061E085E00E94940221E830E0D3
:1001200040EC57E269E070E080E091E00C948801D7
:10013000089560E086E00E945B0261E085E00C9437
:100140005B020E94850080E091E00C942B0180E02E
:1001500091E00C94F800FC0110820895CF92DF9298
:10016000EF92FF92CF93DF93EC016A017B018B85C5
:100170009C85AD85BE859A01AB01281B390B4A0BC6
:100180005B0BDA01C90149815A816B817C8184173B
:100190009507A607B707D8F08881813019F082301B
:1001A00029F00CC0E985FA85099508C061E08885C9
:1001B000811160E068878F810E949402CB86DC8683
:1001C000ED86FE868F8598890196988B8F878D8125
:1001D0009E8197FD06C02F853889281739070CF0B6
:1001E0001882DF91CF91FF90EF90DF90CF9008952C
:1001F0000F931F93CF93DF93EC018C0106551F4F94
:10020000CE010E94AB006196C017D107C9F7DF91FC
:10021000CF911F910F910895CF92DF92EF92FF92AD
:100220001F93CF93DF936A017B01EC011AE0888171
:10023000882329F0B701A601CE010E94AE0011501B
:1002400061961111F4CFDF91CF911F91FF90EF9044
:10025000DF90CF900895CF93DF93EC010E94EB01E4
:10026000AB01BC01CE01DF91CF910C940C0120E0D9
:10027000FC013081332331F02F5F41962A30C1F7E2
:100280008FEF0895822F0895CF92DF92EF92FF9221
:100290000F931F93CF93DF9300D000D0CDB7DEB77D
:1002A0006C01790149835A836B837C830E943701F7
:1002B000282F49815A816B817C818F3FD9F081E160
:1002C0002802C00CD11C112481E0F60180834183F7
:1002D00052836383748316830583F286E1862983C0
:1002E0000E94EB01F6016387748785879687108AE1
:1002F00017862981822F0F900F900F900F90DF911A
:10030000CF911F910F91FF90EF90DF90CF900895C4
:100310000F931F9301E010E00E9444011F910F9181
:10032000089508950E94F7010E9491010E9499008A
:10033000C0E0D0E00E94A1002097E1F30E940000FD
:10034000F9CF1F920F920FB60F9211242F933F9364
:100350008F939F93AF93BF938091AB019091AC012A
:10036000A091AD01B091AE013091AA0123E0230F1D
:100370002D3720F40196A11DB11D05C026E8230FDD
:100380000296A11DB11D2093AA018093AB01909309
:10039000AC01A093AD01B093AE018091AF019091FB
:1003A000B001A091B101B091B2010196A11DB11DA2
:1003B0008093AF019093B001A093B101B093B201CB
:1003C000BF91AF919F918F913F912F910F900FBE51
:1003D0000F901F9018952FB7F8946091AB01709112
:1003E000AC018091AD019091AE012FBF089578943A
:1003F00084B5826084BD84B5816084BD85B582602A
:1004000085BD85B5816085BDEEE6F0E080818160C7
:100410008083E1E8F0E010828081826080838081C7
:1004200081608083E0E8F0E0808181608083E1EB9F
:10043000F0E0808184608083E0EBF0E08081816087
:100440008083EAE7F0E0808184608083808182603D
:100450008083808181608083808180688083109226
:10046000C1000895833081F028F4813099F0823002
:10047000A1F008958730A9F08830B9F08430D1F424
:10048000809180008F7D03C0809180008F77809362
:100490008000089584B58F7702C084B58F7D84BDB8
:1004A00008958091B0008F7703C08091B0008F7D58
:1004B0008093B0000895CF93DF9390E0FC01E4585F
:1004C000FF4F2491FC01E057FF4F8491882349F1AD
:1004D00090E0880F991FFC01E854FF4FA591B4915B
:1004E00082559F4FFC01C591D4919FB7611108C0FF
:1004F000F8948C91209582238C93888182230AC062
:10050000623051F4F8948C91322F309583238C9380
:100510008881822B888304C0F8948C91822B8C93E1
:100520009FBFDF91CF9108950F931F93CF93DF93D8
:100530001F92CDB7DEB7282F30E0F901E859FF4F01
:100540008491F901E458FF4F1491F901E057FF4FEE
:1005500004910023C9F0882321F069830E943202AC
:100560006981E02FF0E0EE0FFF1FE255FF4FA591EC
:10057000B4919FB7F8948C91611103C010958123B9
:1005800001C0812B8C939FBF0F90DF91CF911F9162
:100590000F910895CF93DF93282F30E0F901E859A8
:1005A000FF4F8491F901E458FF4FD491F901E057CE
:1005B000FF4FC491CC2391F081110E943202EC2FA5
:1005C000F0E0EE0FFF1FEC55FF4FA591B4912C9179
:1005D0002D2381E090E021F480E002C080E090E0F3
:1005E000DF91CF910895EE0FFF1F0590F491E02D5C
:0605F0000994F894FFCF0E
:00000001FF
